:020000040800F2
:1000000000080020F96900083507000837070008D4
:100010003B0700083F0700084307000800000000F6
:10002000000000000000000000000000470700087A
:1000300049070008000000004B0700084D070008B2
:10004000136A0008136A0008136A0008136A00089C
:10005000136A0008136A0008136A0008136A00088C
:10006000136A0008136A0008136A0008136A00087C
:10007000136A0008136A0008136A0008136A00086C
:10008000136A0008136A0008136A0008136A00085C
:10009000136A0008136A0008136A0008136A00084C
:1000A000136A0008136A0008136A0008136A00083C
:1000B000136A0008136A0008136A0008136A00082C
:1000C000136A0008136A0008136A0008136A00081C
:1000D000136A0008CB850008E52C0008136A0008A5
:1000E000136A0008136A0008136A0008136A0008FC
:1000F000136A0008136A0008136A0008136A0008EC
:10010000136A0008136A0008136A0008136A0008DB
:10011000136A0008136A0008136A0008136A0008CB
:10012000136A0008136A0008136A0008136A0008BB
:1001300000F002F800F04DF80AA090E8000C8244AC
:100140008344AAF10107DA4501D100F042F8AFF289
:10015000090EBAE80F0013F0010F18BFFB1A43F0A5
:100160000103184770DA000090DA0000103A24BF4B
:1001700078C878C1FAD8520724BF30C830C144BF0C
:1001800004680C607047000000230024002500264E
:10019000103A28BF78C1FBD8520728BF30C148BFEA
:1001A0000B60704766290BF09081642908F0C082CB
:1001B000782908F0F982002070471FB508F02EFF5B
:1001C0000400002000210AF02FF8E0601FBD10B5E8
:1001D00010BD09F04FF81146FFF7EFFF00F034F8BB
:1001E00009F06DF803B4FFF7F2FF03BC08F08EF9D5
:1001F00008B50121102006F0A9FF04208DF80300A6
:100200002020ADF8000003208DF802006946EA487E
:1002100006F0E0FC2021E94806F08BFD01210420D6
:1002200006F094FF10208DF803002020ADF80000A8
:1002300003208DF802006946E14806F0CBFC20213E
:10024000DF4806F076FD08BD1CB508F0F5F8FFF7AD
:10025000CFFF00F06DFB02E0322008F02AF92021E8
:10026000D64806F04AFD0028F6D002F013FD01F052
:10027000F8FF00F05DFB00F04CFC02F0ADFD02F079
:100280000FFE05F038FF4FF6FF7001F0ADFF1F20A5
:10029000CC490880CCA018210B46C822CDE900101B
:1002A0000A211E2002F0C2FCCCA010210B46C8225D
:1002B000CDE9001028211E2002F0B8FCCCA01021AE
:1002C0000B46C822CDE900103C211E2002F0AEFCF6
:1002D000CBA010210B46C822CDE9001050211E20D2
:1002E00002F0A4FCCBA010210B46C822CDE90010DF
:1002F00064211E2002F09AFCCAA010210B46C822DD
:10030000CDE9001078211E2002F090FCCBA0102136
:100310000B46C822CDE900108C211E2002F086FC7D
:10032000CAA010210B46C822CDE90010A0211E2032
:1003300002F07CFCCAA010210B46C822CDE90010B7
:10034000B4211E2002F072FCCAA010210B46C82264
:10035000CDE9001011461E2002F068FCCBA0102150
:100360000B46C822CDE90010DC211E2002F05EFC05
:10037000CBA010210B46C822CDE90010F0211E2091
:1003800002F054FCCBA010210B46C822CDE900108E
:100390004FF482711E2002F049FC0BE118E0CAA064
:1003A00010210B46C822CDE900102821822002F03E
:1003B0003DFCC82008F07DF84FF6FF709223EF2235
:1003C00028210090822002F07BF9C82008F071F803
:1003D00004F0EEFD0028E2D150E000F01AFBBEA0D0
:1003E00010210B46C822CDE900102821872002F0F9
:1003F0001DFCBBA010210B464FF49672CDE90010F6
:100400004FF491711E2002F011FC02F07DFDBA49FB
:100410000860084600680AF0B9FC05462A460B4603
:10042000B6A1B84808F048F9B64810210B46642236
:10043000CDE900107821822002F0F8FB002405E0CD
:1004400006F0ACF8322008F034F8641C042CF7DB1A
:100450004FF6FF704FF49E73C8224FF491710090D5
:100460001E2002F02DF9002405E006F097F8322056
:1004700008F01FF8641C042CF7DB00BFA2480078CA
:100480005728AAD02AE0A1A010210B46C822CDE906
:1004900000102821872002F0C9FB9F48006805282A
:1004A00013D2DFE800F00306090C0F0000F0B1FAE8
:1004B0000EE000F0F0FA0BE000F003FB08E000F0C3
:1004C000D4FA05E000F0BBFA02E000F0A2FA00BFA7
:1004D00000BF322007F0EDFF06F060F88A48007890
:1004E0004228D0D062E08DA010210B46C822CDE971
:1004F00000102821872002F099FB02F005FD7E49BB
:100500000860084600680AF041FC05462A460B468A
:100510007AA17C4808F0D0F87A4810210B46642272
:10052000CDE90010DC21822002F080FB7E480168CA
:10053000714800680AF022FF04D800F080FA06F043
:100540002DF832E000F065FA0A2007F0B2FF19201A
:1005500000F0D4FA02F0D8FC74490860072000F0DB
:10056000CDFA02F0D1FC724908600F2000F0C6FA03
:100570006F4801686D4800680AF000FF02D200F081
:100580008AFA01E000F09DFA002405E006F006F882
:10059000282007F08EFF641C042CF7DB00F039FAEA
:1005A00005F0FCFF322007F084FF00BF56480078BA
:1005B000552898D0F2E600000014014000100140D8
:1005C000000801402400002053544D333220205AAB
:1005D0005A48277320436172000000002053746161
:1005E0007465202020203A202020202000000000D8
:1005F00020426C7565546F6F74683A20204F6E000E
:100600002043616D6572612020203A20204F66668C
:100610000000000020536572766F202020203A20D1
:10062000204F6E002044697374616E6365203A2028
:1006300020202020202020636D0000002054656DC4
:10064000703A202020202E202043000020416363A8
:10065000583A202020202E20206D6D2F735E32000E
:1006600020416363593A202020202E20206D6D2FD9
:10067000735E32004779726F5A3A202020202E2074
:10068000204465677265652F7300000050697463CC
:10069000683A202020202E2020446567726565007E
:1006A00020526F6C6C3A202020202E202044656759
:1006B0007265650020596177203A202020202E2085
:1006C00020446567726565004D50553630353020E1
:1006D0004572726F7200000053746F70000000006A
:1006E00057616974696E6720466F7220436F6D6D44
:1006F000616E642E2E2E00000000002025332E3364
:1007000066000000AC00002030000020436F6E74D3
:10071000726F6C6C656400002C00002041766F697C
:1007200064656E63650000000C000020040000207A
:1007300008000020704700BFFEE700BFFEE700BFD3
:10074000FEE700BFFEE77047704770477047000044
:100750000CB50020019000906C48006840F4803097
:100760006A49086000BF6948006800F400300090E2
:100770000198401C0190009818B90198B0F5A06F3D
:10078000F1D16248006800F4003010B101200090FF
:1007900001E0002000900098012843D15C480068E7
:1007A00040F010005A4908600846006820F0030035
:1007B00008600846006840F002000860534840683E
:1007C000524948600846406848600846406840F41E
:1007D000806048600846406820F47C104860084605
:1007E000406840F4E81048600846006840F08070B7
:1007F000086000BF4548006800F000700028F9D08C
:100800004248406820F0030040494860084640687C
:1008100040F00200486000BF3C48406800F00C0017
:100820000828F9D10CBD10B5FFF792FF10BD10B527
:100830003648006840F001003449086008464068C6
:100840003449084031494860084600683249084048
:100850002E4908600846006820F480200860084699
:10086000406820F4FE0048604FF41F008860FFF7E6
:10087000DAFF4FF000602949086010BD10B5002173
:1008800000200022214B5B6803F00C0121B10429F8
:1008900006D0082928D107E0214B224C236027E00D
:1008A0001F4B204C236023E0184B5B6803F470104F
:1008B000164B5B6803F48032022303EB904022B9AD
:1008C000194B4343174C23600DE0104B5B6803F456
:1008D000003323B1144B4343124C236003E0104B0D
:1008E0004343104C236003E00D4B0E4C236000BFCC
:1008F00000BF064B5B68C3F303130C4CE15C094B70
:100900001B68CB40074C236010BD00000010024064
:10091000002002400000FFF8FFFFF6FE08ED00E0B7
:1009200000127A001000002000093D001400002091
:1009300000B589B00121042006F008FC0121084619
:1009400006F004FC01216A4806F015FA4FF47040E5
:10095000ADF8200003208DF8220010208DF8230030
:1009600008A9644806F036F94FF47041614806F072
:10097000E0F90121C80206F0E9FB0121084606F072
:10098000E5FB4FF41060ADF8200003208DF8220045
:1009900018208DF8230008A9564806F01BF963209B
:1009A000ADF8180040F2CF20ADF814000020ADF8EB
:1009B0001A00ADF8160005A94F4806F0FFFC6020AC
:1009C000ADF804000020ADF80C000120ADF80600E1
:1009D0000020ADF80A0001A9474806F02CFD01A946
:1009E000454806F002FE0121434807F04FF8082170
:1009F000414807F06FF908213F4807F08AF90121C3
:100A00003D4807F037F901213B4807F033F809B0BA
:100A100000BD10B54FF48051364806F08AF94FF406
:100A20000051344806F085F94FF48041314806F012
:100A300080F94FF400412F4806F07BF910BD10B546
:100A40004FF480512B4806F072F94FF400512948B9
:100A500006F06FF94FF48041264806F068F94FF42C
:100A60000041244806F065F910BD10B54FF48051DF
:100A7000204806F05EF94FF400511E4806F057F981
:100A80004FF480411B4806F054F94FF400411948D7
:100A900006F04DF910BD10B54FF48051154806F021
:100AA00046F94FF40051134806F043F94FF48041E2
:100AB000104806F03EF94FF400410E4806F037F9B1
:100AC00010BD10B54FF480510A4806F032F94FF4CA
:100AD0000051084806F02BF94FF48041054806F014
:100AE00026F94FF40041034806F023F910BD000039
:100AF0000004300000080140002C014010B50446FD
:100B0000A1B2244807F052FA4FF42F7007F0D1FC3D
:100B100010BD00B589B00121042006F024FB01219D
:100B2000082006F013FB18208DF823004FF4807086
:100B3000ADF8200003208DF8220008A9164806F021
:100B400049F80020ADF81A00ADF81600C720ADF83E
:100B5000180041F61F40ADF8140005A90D4806F035
:100B60002DFC6020ADF804000020ADF80C00012041
:100B7000ADF806006420ADF80A0001A9054806F0AA
:100B8000E9FC0121034806F075FF0F20FFF7B6FFCF
:100B900009B000BD00080040000C01404FF4807116
:100BA000FD4A516149005161FC4908608021516151
:100BB00011618900116170474FF48071F64A11612B
:100BC00049005161F5490860802151611161890036
:100BD0001161704710B54FF08830F0490C3908604A
:100BE000091D08600020ED4908608815EA49086180
:100BF0004000486140204861E948808848F68911F2
:100C0000884202D1022007F030FCE448001F00684F
:100C100084B24020E0490861C00008614FF03330E1
:100C2000DE490C390860091D08604FF6FF70DB498A
:100C30000860204610BD10B504460B462046FFF75D
:100C4000ADFF4FF48070D449086140004861D3483B
:100C500003608020486108618000086110BD10B504
:100C600004462046FFF79AFFFFF7B4FF10BD00B51A
:100C7000CB490889FFF792FF00BD4FF48071C64A47
:100C8000116149005161C5490860802151611161BC
:100C900089001161704730B5014601F01F04C1F3AE
:100CA0004513CA0AE50205EB43151544A8B230BD49
:100CB00000BF0100A0F10102D0B2FAD1704730B5F7
:100CC00004460D46B648808849F24131884205D035
:100CD000B348808845F21031884240D1B0494889F4
:100CE000FFF75CFF4FF48070AB490861400048613A
:100CF0002012AA4908608020A74948610861800045
:100D000008614010086140004861E0B2A3490860F2
:100D10008020A1494861086180000861A049888954
:100D2000FFF73CFF4FF480709B4908614000486129
:100D300028129A490860802097494861086180001C
:100D400008614010086140004861E8B293490860BA
:100D50008020914948610861800008618CE19048D9
:100D6000808846F60401884249D18D48807901285F
:100D700004D18B480088401E001B84B288494889F2
:100D8000FFF70CFF4FF48070834908614000486111
:100D900020128249086080207F49486108618000F4
:100DA00008614010086140004861E0B27B4908607A
:100DB0008020794948610861800008617849888904
:100DC000FFF7ECFE4FF48070734908614000486102
:100DD00028127249086080206F49486108618000CC
:100DE00008614010086140004861E8B26B49086042
:100DF0008020694948610861800008613CE16848D9
:100E0000808841F6631188427ED165488079002848
:100E10003FD163480088401E001B84B26049488966
:100E2000FFF7BCFE4FF480705B49086140004861E9
:100E300000205A49086080205749486108618000B5
:100E40000861401008614000486100205349086073
:100E500080205149486108618000086140100861A4
:100E60004000486120124D49086080204A4948618D
:100E70000861800008614010086140004861E0B2EC
:100E80004649086080204449486108618000086143
:100E900041E043494889FFF781FE4FF480703E49A5
:100EA00008614000486120123C49086080203A49AE
:100EB0004861086180000861401008614000486195
:100EC000E0B23649086080203349486108618000FB
:100ED0000861401008614000486131480088401EA8
:100EE00000122E49086080202B494861086180006B
:100EF0000861401008614000486129480078401EA0
:100F0000C0B22649086000E04CE0802022494861D8
:100F100008618000086122498889FFF73FFE4FF48D
:100F200080701D4908614000486128121B49086013
:100F300080201949486108618000086140100861FB
:100F400040004861E8B215490860802012494861B4
:100F50000861800008614010086140004861104845
:100F60004088401E00120D49086080200A494861EF
:100F7000086180000861401008614000486108482D
:100F80008078401EC0B2054908608020024948614F
:100F90000861800008616FE0001001400C0C014006
:100FA000B6000020F748808845F21051884250D1A1
:100FB000F4494889FFF7F2FD4FF48070F249086167
:100FC000400048612012F14908608020EE494861E4
:100FD000086180000861EB494989491C88B2FFF724
:100FE000DDFD4FF48070E849086140004861E0B2DF
:100FF000E64908608020E449486108618000086192
:10100000E0498889FFF7CAFD4FF48070DE49086126
:10101000400048612812DD4908608020DA494861B3
:10102000086180000861D7498989491C88B2FFF7A7
:10103000B5FD4FF48070D449086140004861E8B2C2
:10104000D24908608020D049486108618000086169
:1010500012E0CC488079012804D1CA480088401E9B
:10106000001B84B2C74948892146FFF7E4FDC54902
:1010700088892946FFF7DFFD30BD2DE9F04105469F
:101080000E46C0480088A84203DDBE484088B042F2
:1010900002DC0020BDE8F08131462846FFF70FFE54
:1010A000B848808849F24131884211D0B5488088DB
:1010B00046F6040188420BD0B248808845F21031D0
:1010C000884205D0AF48808841F66311884203D139
:1010D0002E20FFF763FD0DE0AA48808845F21051ED
:1010E000884204D14FF43850FFF758FD02E0222027
:1010F000FFF754FD4FF08830A4490C390860091DF2
:1011000008604FF6FF70A149086088159E49086184
:1011100040004861402048610220FFF7C9FD9B481C
:10112000001F006884B24020974908619548808874
:1011300041F66311884210D14FF400709249086162
:101140004FF0333091490C390860091D08604FF6A3
:10115000FF708E49086020469CE740208A4948611C
:101160000220FFF7A5FD8948001F006884B24020D7
:10117000854908618348808849F2413188420BD013
:101180008048808845F21031884205D07D488088AB
:1011900045F21051884213D140207B49486102201A
:1011A000FFF786FD7948001F00681FFA80F840208D
:1011B00075490861E7B24FF6FF7000EA07270DE0B6
:1011C0007048808846F60401884207D140206E4965
:1011D000486108616D48001F006884B24FF40070D8
:1011E000694908614FF0333068490C390860091DBE
:1011F00008604FF6FF70654908606248808849F2D0
:101200002531884216D05F48808844F235518842A3
:1012100010D05C488088091F88420BD059488088CC
:1012200048F68911884205D0564880884BF205510E
:10123000884201D120462DE75248808849F2413149
:1012400088420BD04F48808845F21031884205D043
:101250004C48808845F21051884207D1E012C00204
:10126000B91240EA411040EAE82013E72046FFF7B0
:1012700012FD0FE700B54348808849F241318842AA
:1012800011D04048808846F6040188420BD03D4882
:10129000808845F21031884205D03A48808841F66E
:1012A0006311884203D12920FFF778FC0FE035480D
:1012B000808845F21051884204D14FF42450FFF742
:1012C0006DFC04E040F273110720FFF7B4FC00BD91
:1012D00000B52C48808849F24131884211D0294814
:1012E000808846F6040188420BD02648808845F263
:1012F0001031884205D02348808841F66311884226
:1013000003D12820FFF74AFC0EE01E48808845F2F2
:101310001051884204D14FF42050FFF73FFC03E006
:1013200000210720FFF787FC00BDF0B5054600242B
:1013300000271448807901280BD11248808846F68E
:101340000401884205D00F48808841F66311884225
:1013500008D10C48807920BB0A48808841F6631187
:1013600088421ED1082D1BD2DFE805F00406080ACA
:1013700012141618062513E0072511E004250FE0C6
:1013800005250DE0B6000020001001400C0C0140C6
:10139000012505E0002503E0032501E0022500BF4B
:1013A00000BFF848808849F24131884217D0F5489B
:1013B000808846F60401884211D0F248808845F2C0
:1013C000103188420BD0EF48808845F21051884296
:1013D00005D0EC48808841F6631188427ED1082D03
:1013E0001CD2DFE805F00406090C0F12151800BF27
:1013F00014E044F0800411E044F040040EE044F0B6
:10140000C0040BE044F0200408E044F0600405E070
:1014100044F0A00402E044F0E00400BF00BFD9485B
:10142000808845F21051884202D14FF4585700E0AD
:101430003627D448808845F2103188420DD0D148F3
:10144000808845F21051884207D0CE48808841F606
:101450006311884201D044F00804CA48808846F6E7
:101460000401884201D144F0020421463846FFF7C6
:10147000E2FBC448808841F6631188421DD004F025
:10148000200068B1BF480088BE494988884214DA04
:10149000BC4806884088BB490880084646800CE066
:1014A000B8480088B7494988884206DDB5480688AB
:1014B0004088B449088008464680B248808845F292
:1014C000105188427ED1AF494889FFF767FB4FF43E
:1014D0008070AD4908614000486100E029E10020CA
:1014E000AA4908608020A849486108618000086115
:1014F000A4494989491C88B2FFF750FB4FF480701A
:10150000A1490861400048610020A049086080208E
:101510009D4948610861800008619A494989891C90
:1015200088B2FFF73BFB4FF4807097490861400099
:10153000486194480088401E001294490860802049
:10154000914948610861800008618E494989C91C38
:1015500088B2FFF723FB4FF480708B49086140008D
:10156000486188480078401EC0B2884908608020E1
:101570008549486108618000086182498889FFF7D0
:101580000DFB4FF4807080490861400048610020E5
:101590007E49086080207C494861086180000861BC
:1015A00078498989491C88B2FFF7F8FA4FF48070AE
:1015B0007549086140004861002074490860802036
:1015C000714900E034E048610861800008616D49BC
:1015D0008989891C88B2FFF7E1FA4FF480706A4963
:1015E00008614000486167484088401E0012674912
:1015F0000860802064494861086180000861614991
:101600008989C91C88B2FFF7C9FA4FF480705E4916
:101610000861400048615B488078401EC0B25B4969
:101620000860802058494861086180000861A7E08F
:1016300054494889FFF7B2FA4FF480705249086163
:101640004000486100205149086080204E494861AF
:101650000861800008614010086140004861002076
:101660004A49086080204849486108618000086153
:10167000401008614000486142480088401E001246
:101680004249086080204049486108618000086143
:1016900040100861400048613A480078401EC0B2DE
:1016A0003A49086080203849486108618000086133
:1016B00034498889FFF772FA4FF480703249086123
:1016C0004000486100203149086080202E4948616F
:1016D00008618000086140100861400048610020F6
:1016E0002A49086080202849486108618000086113
:1016F000401008614000486122484088401E0012A6
:101700002249086080202049486108618000086102
:1017100040100861400048611A488078401EC0B2FD
:101720001A490860802018494861086180000861F2
:1017300026E0082D1CD2DFE805F004070A0D0F1281
:10174000151844F0300413E044F0100410E044F0A5
:1017500020040DE000BF0BE044F0380408E044F042
:10176000280405E044F0180402E044F0080400BF37
:1017700000BF032744F4805421463846FFF75BFA44
:10178000F0BD0000B6000020001001400C0C01402C
:1017900030B504460D4629462046FFF790FAFFF77C
:1017A00066FA4FF48070FE49086140004861FD48C8
:1017B0000088FD4908608020F9494861086180007F
:1017C000086130BD70B504460D461646F74880885E
:1017D00049F24131884205D0F448808845F2103101
:1017E000884240D1F1494889FFF7D8F94FF4807019
:1017F000EB490861400048612012EB4908608020F5
:10180000E7494861086180000861401008614000B4
:101810004861E0B2E44908608020E149486108611C
:1018200080000861E1498889FFF7B8F94FF48070BA
:10183000DB490861400048612812DB4908608020CC
:10184000D749486108618000086140100861400084
:101850004861E8B2D44908608020D14948610861F4
:10186000800008613DE1D148808845F210518842EE
:1018700050D1CE494889FFF791F94FF48070C8499B
:101880000861400048612012C74908608020C449AF
:101890004861086180000861C4494989491C88B2CF
:1018A000FFF77CF94FF48070BD4908614000486142
:1018B000E0B2BD4908608020B949486108618000F4
:1018C0000861BA498889FFF769F94FF48070B44913
:1018D0000861400048612812B34908608020B0497F
:1018E0004861086180000861B0498989491C88B253
:1018F000FFF754F94FF48070A9490861400048612E
:10190000E8B2A94908608020A549486108618000C3
:101910000861E6E0A548808841F6631188427DD1E0
:10192000A248807920B9A1480088401E001B84B2DB
:101930009E494889FFF732F94FF480709849086151
:10194000400048612012984908608020944948610D
:101950000861800008614010086140004861E0B201
:101960009149086080208E494861086180000861C3
:10197000401008614000486120128B4908608020B7
:101980008749486108618000086140100861400093
:101990004861E0B28449086080208149486108615B
:1019A0008000086181498889FFF7F8F84FF480705A
:1019B0007B4908614000486128127B49086080200B
:1019C0007749486108618000086140100861400063
:1019D0004861E8B274490860802071494861086133
:1019E00080000861401008614000486128126E497B
:1019F000086080206A4948610861800008614010E1
:101A0000086140004861E8B2674908608020644985
:101A1000486108618000086163E0FFE763488088EF
:101A200046F60401884249D160488079012804D1F2
:101A30005E480088401E001B84B25C494889FFF75D
:101A4000ADF84FF48070564908614000486120129B
:101A5000554908608020524948610861800008614A
:101A60004010086140004861E0B24F4908608020A2
:101A70004B4948610861800008614C498889FFF73B
:101A80008DF84FF480704649086140004861281283
:101A9000454908608020424948610861800008612A
:101AA0004010086140004861E8B23F49086080206A
:101AB0003B49486108618000086112E03B48807939
:101AC000012804D139480088401E001B84B23749E0
:101AD00048892146FFF7AFF8344988892946FFF73E
:101AE000AAF84FF480702E494861400048612F48A1
:101AF00000892D49086080202949486108618000DB
:101B00000861401008614000486127480660802055
:101B1000486108618000086170BD2DE9F04104460C
:101B2000BE20FFF73BF84FF480701D49086140006C
:101B3000486105201C4908608020194948610861F6
:101B4000800008614010086140004861204608F0AC
:101B50002FFE05464FF06632154B08F03DFE074656
:101B600008F0E2FD1049086080200D4948610861D5
:101B700080000861401008614000486101200A4966
:101B800008608020064948610861800008614010B3
:101B9000086140004861FF2003490860802009E097
:101BA00000100140240000200C0C0140B600002071
:101BB00066660440FE494861086180000861401083
:101BC0000861400048610020FA4908608020F84917
:101BD0004861086180000861401008614000486168
:101BE0000020F44908608020F149486108618000C4
:101BF0000861BDE8F08110B50446002C66D1EE49BD
:101C00008871F02008804FF4A070488008468088D2
:101C100049F2413188420BD0E748808846F60401FA
:101C2000884205D0E448808845F2103188421AD1B4
:101C30002C20E14908812A2048812B2088810846F0
:101C4000808846F60401884205D0DB48808845F24A
:101C50001031884206D14FF4A070D74908804FF464
:101C6000F0704880A1E0D448808845F21051884245
:101C700010D14FF43050D04908814FF4285048819A
:101C80004FF42C5088814FF4F07008804FF4487066
:101C900048808AE0C848808841F6631188420DD1A7
:101CA0002C20C54908812B2048812A2088814FF4A7
:101CB000F07008804FF44870488076E02220BE49DA
:101CC000088120204881212088816EE00120BA49C6
:101CD00088714FF4A0700880F02048800846808802
:101CE00049F24131884205D0B348808845F210312D
:101CF000884207D12C20B04908812A2048812B2016
:101D000088813FE0AC48808846F60401884207D1CC
:101D10002C20A94908812B2048812A20888131E084
:101D2000A548808845F21051884210D14FF43050B8
:101D3000A14908814FF4285048814FF42C508881E4
:101D40004FF4487008804FF4F07048801AE09A48C9
:101D5000808841F6631188420DD12C209649088174
:101D60002A2048812B2088814FF4487008804FF446
:101D7000F070488006E022208F49088121204881A8
:101D8000202088818C48808846F60401884205D04E
:101D90008948808845F21031884206D14FF4F070AE
:101DA000854908804FF4A07048800020FFF7BDFAF5
:101DB00010BD2DE9F04F86B004460D469046994679
:101DC00004EB0800401E86B205EB0900401E87B2F6
:101DD0007948808849F24131884215D07648808818
:101DE00045F2103188420FD07348808846F60401CE
:101DF000884209D07048807901287BD16E4880885C
:101E000041F66311884275D16B494889FEF7C6FED9
:101E10004FF48070664908614000486120126549AE
:101E200008608020624948610861800008614010B4
:101E3000086140004861E0B25E49086080205C496A
:101E400048610861800008614010086140004861F5
:101E50003012584908608020554948610861800067
:101E600008614010086140004861F0B251490860C3
:101E700080204F4948610861800008614E49888987
:101E8000FEF78CFE4FF480704949086140004861BC
:101E9000281248490860802045494861086180004F
:101EA00008614010086140004861E8B2414908609B
:101EB00080203F4948610861800008614010086146
:101EC0004000486138123B49086080203849486129
:101ED0000861800008614010086140004861F8B264
:101EE00034490860802032494861086180000861F7
:101EF00077E1FFE73048808841F6631188427DD161
:101F00002D480088A0EB0800001B84B205EB0900F7
:101F1000401E1FFA80F928494889FEF73FFE4FF41A
:101F200080702349086140004861201221490860FF
:101F300080201F49486108618000086140100861E5
:101F400040004861E0B21B490860802018494861A0
:101F5000086180000861401008614000486104EB9E
:101F60000800401E00121349086080201049486193
:101F7000086180000861401008614000486104EB7E
:101F80000800401EC0B20B49086080200849486123
:101F900008618000086108498889FEF7FFFD4FF459
:101FA000807003490861400048612812014905E03A
:101FB000001001400C0C0140B60000200860802099
:101FC000FE494861086180000861401008614000D6
:101FD0004861E8B2FA4908608020F8494861086120
:101FE0008000086140100861400048614FEA2920E4
:101FF000F34908608020F149486100E011E0086180
:1020000080000861401008614000486109F0FF004D
:10201000EB4908608020E949486108618000086157
:10202000DFE0E848808845F2105188427ED1E549DA
:102030004889FEF7B3FD4FF48070E0490861400025
:1020400048612012DE4908608020DC49486108614F
:1020500080000861DB494989491C88B2FEF79EFD72
:102060004FF48070D549086140004861E0B2D4491E
:1020700008608020D1494861086180000861D14929
:102080004989891C88B2FEF789FD4FF48070CB49DD
:102090000861400048613012C94908608020C74982
:1020A0004861086180000861C6494989C91C88B235
:1020B000FEF774FD4FF48070C0490861400048612C
:1020C000F0B2BF4908608020BC49486108618000C7
:1020D0000861BC498889FEF761FD4FF48070B749FB
:1020E0000861400048612812B54908608020B34962
:1020F0004861086180000861B2498989491C88B239
:10210000FEF74CFD4FF48070AC4908614000486117
:10211000E8B2AB4908608020A849486108618000A6
:102120000861A8498989891C88B200E026E0FEF789
:1021300035FD4FF48070A1490861400048613812B4
:102140009F49086080209D494861086180000861BE
:102150009C498989C91C88B2FEF720FD4FF4807024
:102160009649086140004861F8B2954908608020AE
:102170009249486108618000086132E091488079A5
:1021800001280ED1AA46BB468E480088801B401EFF
:1021900080B201908B480088001B401E80B20090E6
:1021A00003E0A246B34601950097502005905120C8
:1021B0000490522003905320029051460598FEF758
:1021C0003AFD59460498FEF736FD01990398FEF74B
:1021D00032FD00990298FEF72EFD29462046FEF7B3
:1021E0006EFD06B0BDE8F08F70B504460026754858
:1021F0000588408845437348808846F60401884234
:1022000016D170488079012812D100206D4988715B
:102210002A2048812B20888100210846FEF74FFDA7
:102220000120684988712B2048812A20888103E099
:1022300000210846FEF743FDFEF719FD00260DE0DC
:102240004FF480705D490861400048615C4804605B
:1022500080204861086180000861761CAE42EFD39F
:1022600070BD08B50121192004F070FF0121564806
:1022700004F081FD4FF4F860ADF8000010208DF8F7
:10228000030003208DF8020069464C4804F0A2FCCC
:102290004FF4F861494804F04AFD4FF6FF70ADF87D
:1022A0000000694646480C3804F094FC4FF6FF7174
:1022B00043480C3804F03BFD322006F0FAF80121C7
:1022C0000020FEF7B8FC322006F0F3F80020FEF7FD
:1022D000C6FC3C49888008468088FF280ADB0846FF
:1022E00080884FF6FF71884204D036488088B0F568
:1022F000134F62D1D320FEF751FCFEF76BFCFEF7C3
:1023000069FCFEF767FC2F498880084680884FF6F5
:10231000FF7101EA00202B498880FEF75BFC294908
:1023200089880843274988800846808849F24131D6
:10233000884242D0BF20FEF731FCFEF74BFCFEF78F
:1023400049FCFEF747FCFEF745FC1E49888008461D
:1023500080884FF6FF7101EA00201A498880FEF755
:1023600039FC1849898808431649888008468088BE
:1023700046F6040188427CD0D420FEF70FFCFEF71D
:1023800029FCFEF727FCFEF725FC0E49888008464D
:1023900080884FF6FF7101EA00200A498880FEF725
:1023A00019FC0849898808430649888008468088BE
:1023B00045F2103188425CD008E05AE0001001403C
:1023C0000C0C0140B6000020000430004FF45A40CD
:1023D000FEF7E4FBFEF7FEFB4FF45B40FEF7DEFB8F
:1023E000FEF7F8FBF7498880084680884FF6FF71B2
:1023F00001EA0020F34988804FF45C40FEF7CEFBF1
:10240000FEF7E8FBEF4989880843EE4988800846D3
:102410008088B0F5004F02D145F210508880E9481D
:10242000808845F21051884223D0A120FEF7B6FBE8
:10243000FEF7D0FBE3498880FEF7CCFBE1498880BA
:10244000084680884FF6FF7101EA0020DD49888048
:10245000FEF7C0FBDB4989880843DA4988800846D3
:10246000808845F26171884203D141F66310D549F5
:102470008880D448808849F2413188427ED1CF207B
:10248000FEF78CFB0020FEF797FBC120FEF794FBC4
:102490003020FEF791FBED20FEF780FB6420FEF775
:1024A0008BFB0320FEF788FB1220FEF785FB8120C3
:1024B000FEF782FBE820FEF771FB8520FEF77CFB30
:1024C0001020FEF779FB7A20FEF776FBCB20FEF793
:1024D00065FB3920FEF770FB2C20FEF76DFB00201A
:1024E000FEF76AFB3420FEF767FB0220FEF764FB71
:1024F000F720FEF753FB2020FEF75EFBEA20FEF7F5
:102500004DFB0020FEF758FB0020FEF755FBC020D6
:10251000FEF744FB1B20FEF74FFBC120FEF73EFBFE
:102520000120FEF749FBC520FEF738FB3020FEF7FF
:1025300043FB3020FEF740FBC720FEF72FFBB72000
:10254000FEF73AFB3620FEF729FB4820FEF734FB66
:102550003A20FEF723FB5520FEF72EFBB120FEF7B5
:102560001DFB0020FEF728FB1A20FEF725FBB620F6
:10257000FEF714FB0A20FEF71FFB00E095E0A22007
:10258000FEF71AFBF220FEF709FB0020FEF714FB12
:102590002620FEF703FB0120FEF70EFBE020FEF7EE
:1025A000FDFA0F20FEF708FB2A20FEF705FB282086
:1025B000FEF702FB0820FEF7FFFA0E20FEF7FCFAFA
:1025C0000820FEF7F9FA5420FEF7F6FAA920FEF7E4
:1025D000F3FA4320FEF7F0FA0A20FEF7EDFA0F2097
:1025E000FEF7EAFA0020FEF7E7FA0020FEF7E4FA29
:1025F0000020FEF7E1FA0020FEF7DEFAE120FEF708
:10260000CDFA0020FEF7D8FA1520FEF7D5FA1720EC
:10261000FEF7D2FA0720FEF7CFFA1120FEF7CCFA28
:102620000620FEF7C9FA2B20FEF7C6FA5620FEF761
:10263000C3FA3C20FEF7C0FA0520FEF7BDFA1020D1
:10264000FEF7BAFA0F20FEF7B7FA3F20FEF7B4FA0A
:102650003F20FEF7B1FA0F20FEF7AEFA2B20FEF76F
:102660009DFA0020FEF7A8FA0020FEF7A5FA012047
:10267000FEF7A2FA3F20FEF79FFA2A20FEF78EFA15
:102680000020FEF799FA0020FEF796FA0020FEF7E8
:1026900093FAEF20FEF790FA1120FEF77FFA7820E8
:1026A00005F007FF2920FEF779FA0020FFF7A3FACB
:1026B0000120454908604FF6FF70FFF795FD08BD02
:1026C0002DE9FC4F05460E4617469846DDF82C903E
:1026D000002001903B48808846F60401884229D1B9
:1026E00038488079012825D1AB46354635480088E1
:1026F000C01B401E86B2474632480088A0EB0B0044
:10270000401E1FFA80F800202E4988712A20488137
:102710002B20888143463A4631462846CDF8009022
:10272000FFF7CEFF0120274988712B2048812A20FE
:10273000888127E0781B401C80B2019034461FE05E
:1027400021462846FEF7BBFAFEF791FA4FF0000A41
:1027500011E04FF480701D490861400048611C4839
:10276000C0F80090802048610861800008610AF18B
:1027700001001FFA80FA01988245EADB601C84B2EE
:102780004445DDDDBDE8FC8F2DE9F84F07460D46D9
:1027900090469946DDF828B0A8EB0700401C1FFAC8
:1027A00080FAA9EB0500401C80B20090002429E0CB
:1027B000281981B23846FEF782FAFEF758FA002649
:1027C0001CE00000B6000020A801224200100140D9
:1027D0000C0C01404FF48070FE49086140004861D4
:1027E00004FB0A603BF81000FB4908608020F949AF
:1027F0004861086180000861701C86B25645E9DBBB
:10280000601C84B200988442D2DBBDE8F88F2DE9C9
:10281000FF4F84B081468A460020039002900698BC
:10282000A0EB09050798A0EB0A06CDF80490CDF8B7
:1028300000A0002D01DD012705E00DB9002702E011
:102840004FF0FF376D42002E02DD4FF0010806E029
:1028500016B94FF0000802E04FF0FF387642B5425B
:1028600001DD2C4600E034464FF0000B21E0009AD9
:1028700091B2019A90B2FEF78BFF0398284403901F
:102880000298304402900398A04205DD0398001B93
:1028900003900198384401900298A04205DD029807
:1028A000001B02900098404400900BF101001FFAB9
:1028B00080FB601C8345DADD08B0BDE8F08FF0B521
:1028C00004460D4616461F462B46324629462046EC
:1028D000FFF79DFF3B46224629462046FFF797FF1C
:1028E0003B46324639462046FFF791FF3B4632468B
:1028F00029463046FFF78BFFF0BD2DE9F043064631
:102900000F469046002445460320A0EB48093CE0D2
:102910007A1B91B2321990B2FEF73AFF3A1B91B28C
:10292000721990B2FEF734FF3A1991B2721990B24F
:10293000FEF72EFF7A1991B2321990B2FEF728FFF6
:102940007A1991B2321B90B2FEF722FF3A1991B276
:10295000721B90B2FEF71CFF7A1B91B2321B90B231
:10296000FEF716FF3A1B91B2721B90B2FEF710FFF2
:10297000641CB9F1000F03DAA000801D814404E05B
:10298000601B80000A3081446D1EAC42C0DDBDE892
:10299000F0832DE9F84F80460E4617461C46B34695
:1029A0002046E31704EB5373DB1021464FEAE47C27
:1029B00004EB5C7C4FEAEC0CA4EBCC0CBCF1000FFC
:1029C00002D04FF0010C01E04FF0000C63442246AE
:1029D00004EBD27C4FEA6C0C03FB0CF3DBB20093EC
:1029E000A7F12000C7B2002556E00C2C07D107EB59
:1029F00047007A4901EB800010F8059013E0102C95
:102A000005D1774800EB071010F805900BE0182C63
:102A100007D107EBC700734901EB800010F8059060
:102A200001E0BDE8F88F4FF0000A2FE009F08000C8
:102A300030B16D48028831464046FEF7C3FE07E0DC
:102A40000A9828B96948028831464046FEF7BAFE1E
:102A50004FEA49604FEA1069701C86B264484088AA
:102A6000B04200DCDDE7A6EB0B00A0420AD15E46D7
:102A700008F101001FFA80F85D480088404500DC3D
:102A8000CFE706E00AF1010000F0FF0ABAF1080FF3
:102A9000CCDB00BF681CC5B200988542A5DB00BF37
:102AA000BFE710B50246012000E050430B00A1F142
:102AB0000104E1B2F9D110BD2DE9FF4F81B0074605
:102AC00091461E460E9D4FF0000A002439E0301B4F
:102AD000401EC1B20A20FFF7E4FFB9FBF0F00A2163
:102AE000B0FBF1F201FB1208BAF1000F16D1701E13
:102AF000A04213DDB8F1000F0ED10020AB4605EB6C
:102B0000DB71491001FB0471009088B22B46202232
:102B10000299FFF73EFF12E04FF0010A0020AB469A
:102B200005EBDB71491001FB0471009088B208F1DC
:102B30003001CAB22B460299FFF72BFF00BF601C81
:102B4000C4B2B442C3DB05B0BDE8F08F2DE9FF4F3E
:102B500082B0064692461F46DDE90F4800200190EC
:102B600000255EE0781B401EC1B20A20FFF799FFE6
:102B7000BAFBF0F00A21B0FBF1F201FB1209019857
:102B8000C0BB781EA84238DDB9F1000F33D108F080
:102B9000800078B108F00100A34604EBDB71491016
:102BA00001FB0561009088B2234630220399FFF7AC
:102BB000F0FE0EE008F00100A34604EBDB714910C3
:102BC00001FB0561009088B2234620220399FFF79C
:102BD000E0FE24E0001001400C0C0140BEB50008EE
:102BE00032BA000822C0000824000020260000207D
:102BF000B600002001E00120019008F00100A3468A
:102C000004EBDB71491001FB0561009088B209F10A
:102C10003001CAB223460399FFF7BBFE00BF681C10
:102C2000C5B2BD429EDB06B0BDE8F08F2DE9F84786
:102C300004460D4690469946DDE9096704F0FF0A0F
:102C400008EB04001FFA80F809EB05001FFA80F971
:102C500016E0444502DB5446A81985B24D4500DB19
:102C600014E0002000903A78334629462046FFF7CA
:102C700090FE304606EBD07104EB61018CB27F1CF4
:102C800038787E2802DC38782028E2DA00BFBDE8F8
:102C9000F887000008B50121242004F057FA4FF40A
:102CA0008070ADF8000010208DF8030003208DF82F
:102CB00002006946094803F08DFF4FF48071074810
:102CC00004F035F80420ADF800006946044803F02C
:102CD00081FF0421024804F02AF808BD00080140E1
:102CE0000014014010B540F22551654805F060FB25
:102CF000012870D140F22551614805F083FB6048FE
:102D000005F0D6FA5F49087008460078302802D1ED
:102D100000205D4908605B480078312802D101201D
:102D20005949086057480078322802D10220564994
:102D3000086054480078332802D1032052490860C3
:102D400050480078342802D104204F4908604D488B
:102D50000078572801D14D4908704A480078422828
:102D600001D14A49087047480078552801D14749A0
:102D700008704448007848280ED16420444908600F
:102D80000846008881B2434805F00CF940480088A5
:102D900081B2404805F00CF93A4800784C280ED131
:102DA0004B203B4908600846008881B2394805F04D
:102DB000F9F83748008881B2364805F0F9F831480B
:102DC00000784A2807D13448006808B9012000E09B
:102DD00000203149086010BD00B587B001210520F1
:102DE00004F0B4F90121480404F0BDF90420ADF861
:102DF000180003208DF81A0018208DF81B0006A972
:102E0000264803F0E7FE0820ADF8180004208DF8EE
:102E10001B0006A9214803F0DDFE4FF41640029086
:102E20000020ADF80C00ADF80E00ADF81000ADF8C4
:102E300014000C20ADF8120002A9114805F03BF96E
:102E4000012240F225510E4805F0CDF94FF4A06063
:102E500003F0F2FD26208DF8040002208DF8050015
:102E600003208DF8060001208DF8070001A803F06B
:102E7000E8FD0121024805F0AAF907B000BD0000F5
:102E800000440040280000202C00002030000020DA
:102E900034000020002C0140940121420008014030
:102EA0001FB50121042004F051F90121022004F092
:102EB0005AF910208DF80F004020ADF80C000320C7
:102EC0008DF80E0003A9424803F084FE04208DF81B
:102ED0000F008020ADF80C0003A93D4803F07AFEF6
:102EE0000020ADF80600ADF8020042F22730ADF840
:102EF00004004720ADF8000000208DF80800694666
:102F0000344804F05BFA1FBD2DE9F04786B04FF05E
:102F10000009002445E040212D4803F008FF0A2065
:102F200005F0A3FA40212A4803F003FF00BF8021E7
:102F3000274803F0E2FE0028F9D08021244803F05E
:102F4000DCFE18B3002023492431088001212148E8
:102F500004F090FD00BF80211D4803F0CEFE012843
:102F6000F9D000211B4804F085FD1A4805F039F816
:102F7000824607F01DFC0746174A184B07F02CFC49
:102F8000054607F067F901A941F8240001A850F8A7
:102F90002410484607F026FF81460A2005F089FAEA
:102FA000641C052CB7DB0E49484607F089FF8146B3
:102FB00049460C4808F016F906460B4908F012F984
:102FC00005464FF0804107F07BFF06B0BDE8F08773
:102FD00000080140000400408DEDB5A0F7C6B03EEA
:102FE0000000A0400000C8420000AA4338B50446D3
:102FF000F74890F82400C0B114B10220009001E01D
:1030000000200090F24A1268D17BF14A5268107891
:103010006B46012203F061F910B14FF0FF3038BD6B
:103020009DF80010EA48417423E0E948807A10B91D
:103030004FF0FF30F3E724B1E548407C08B10020B1
:10304000EDE714B10120009001E000200090E04A7B
:103050001268D17BDE4A526810786B46012203F079
:103060003CF910B14FF0FF30D9E79DF80010D84877
:1030700041740020D3E738B500241FE0D44800682D
:10308000C07AA04204D0D2480068407DA04200D15E
:1030900012E0CF49496808786B460122214603F0C7
:1030A00067F810B14FF0FF3038BD9DF80020214681
:1030B000C8A005F0F5FA00BF601CC4B2C44840685F
:1030C0000079A042DADC0020EEE770B504460D4638
:1030D000BF480068C07AA04204D0BD480068407D67
:1030E000A04202D14FF0FF3070BDB948406800796E
:1030F000A04202DC4FF0FF30F6E7B5494968087896
:103100002B460122214603F033F8EDE738B504469B
:10311000AF4890F82300A04201D1002038BD14B17F
:103120003020009001E000200090A948807C20B170
:103130009DF8000040F002000090A54890F82200A1
:1031400020B19DF8000040F080000090A04A126875
:10315000117D9F4A526810786B46012203F0BDF83A
:1031600010B14FF0FF30D9E7994880F82340002094
:10317000D4E738B5044604F0700010B10120009087
:1031800005E014B10020009001E040200090904A3A
:103190001268917C8E4A526810786B46012203F0C7
:1031A0009CF820B100218A488172481E38BD9DF8E4
:1031B000000020F04001864801730020009004F0D8
:1031C000400020B99DF8000040F00400009004F099
:1031D000200020B99DF8000040F00200009004F0AB
:1031E000100020B99DF8000040F00100009004F0AC
:1031F000080020B99DF8000040F038000090744AA3
:103200001268D17C724A526810786B46012203F032
:1032100064F820B100216E488172481EC6E724B1CF
:10322000082C02D00020FFF771FF6948847200214A
:103230000175322005F03DF90020B7E738B50446A6
:103240006348807CA04201D1002038BD002C46D0CC
:103250005F4A126811795E4A526810786B46012203
:1032600002F086FF10B14FF0FF30EEE79DF800004E
:1032700020F020000090564A12681179544A526892
:1032800010786B46012203F028F810B14FF0FF30A0
:10329000DBE7032005F00DF9022000904C4890F880
:1032A000220020B19DF8000040F0800000904848C6
:1032B00090F8230020B19DF8000040F0300000900D
:1032C000434A1268117D424A526810786B460122C7
:1032D00003F003F8002851D04FF0FF30B5E73C4A27
:1032E000126811793A4A526810786B46012202F04E
:1032F0003FFF10B14FF0FF30A7E73548807A00F06C
:10330000010028B19DF8000040F02000009004E08A
:103310009DF8000020F0200000902D4A12681179DD
:103320002B4A526810786B46012202F0D6FF10B18A
:103330004FF0FF3089E7032005F0BBF8244890F8F0
:10334000220010B18020009001E000200090204871
:1033500090F8230020B19DF8000040F0300000906C
:103360001B4A1268117D1A4A526810786B46012276
:1033700002F0B3FF10B14FF0FF3066E714488474D9
:10338000002062E708B51248807A10B94FF0FF308C
:1033900008BD002000900E4A1268D17B0C4A52688A
:1033A00010786B46012202F098FF10B14FF0FF3009
:1033B000EEE7074A12685179054A526810786B4661
:1033C000012202F08AFF68B14FF0FF30E0E7000011
:1033D00038000020252335783A20252335780D0A3A
:1033E00000000000F84A12681179F74A5268107814
:1033F0006B46012202F071FF10B14FF0FF30C7E7BA
:10340000F14890F82400002853D00C200090EE4A98
:1034100012681179EC4A526810786B46012202F06A
:103420005CFF10B14FF0FF30B2E7322005F041F8F9
:10343000C0200090E448807A00F0010020B19DF89F
:10344000000040F020000090DF4A12681179DE4A47
:10345000526810786B46012202F03FFF10B14FF026
:10346000FF3095E7D848407C10B10220009001E081
:1034700000200090D44A1268D17BD34A5268107859
:103480006B46012202F029FF10B14FF0FF307FE7B9
:1034900000200090CC4A12685179CB4A52681078CB
:1034A0006B46012202F019FF002855D04FF0FF3083
:1034B0006EE704200090C44A12681179C24A52682B
:1034C00010786B46012202F008FF10B14FF0FF3078
:1034D0005EE7BD48807C20B9BB48807A00F00100DF
:1034E00010B94020009001E060200090B64A1268B8
:1034F0001179B54A526810786B46012202F0EDFE50
:1035000010B14FF0FF3043E7322004F0D2FFAE4855
:10351000407C10B10120009001E000200090AA4AF8
:103520001268D17BA84A526810786B46012202F0DB
:10353000D4FE10B14FF0FF302AE7A34A1268517948
:10354000A14A52681078A04B1033012202F0C5FE48
:1035500010B14FF0FF301BE7002019E770B50446AB
:10356000002624F00104984890F8240008B10020B7
:1035700070BD9548807A10B94FF0FF30F8E7924857
:10358000057C807A2040904908740846007CA0425F
:1035900002D04FF0FF3600E0002614B98A48007DC3
:1035A00018B10120FFF722FD02E00020FFF71EFD09
:1035B0003CB1FFF7E7FE20B1834805744FF0FF30C0
:1035C000D6E73046D4E738B504467F48807A10B94C
:1035D0004FF0FF3038BDBC2C02DB0120009015E01D
:1035E000622C02DB0220009010E02A2C02DB032078
:1035F00000900BE0142C02DB0420009006E00A2C63
:1036000002DB0520009001E0062000906E48C07AA1
:103610009DF80010884201D10020DBE76A4A126859
:103620009178694A526810786B46012202F055FE83
:1036300010B14FF0FF30CDE79DF800106248C17225
:103640000020C7E738B50446282C02DD4FF0FF30D4
:1036500038BDDCB90020FFF759FD00208DF80000CF
:1036600007208DF80100584A1268917C564A52682A
:1036700010786B46022202F030FE10B14FF0FF309E
:10368000E6E70021504801750020E1E70120FFF73F
:103690003DFD20208DF80000012C06D100208DF882
:1036A00001000520FFF78FFF17E0052C06DC012045
:1036B0008DF801000520FFF786FF0EE0142C06DCD4
:1036C00002208DF801000A20FFF77DFF05E00320AE
:1036D0008DF801001420FFF776FF9DF80100072107
:1036E00001EB8010C0B28DF80100374A1268917C5E
:1036F000354A526810786B46022202F0EEFD10B196
:103700004FF0FF30A4E708212F4881720021017398
:10371000012101750020FFF721FF002098E738B54F
:1037200004462948807A10B94FF0FF3038BD26484A
:1037300090F8240010B14FF0FF30F7E72248007DE9
:1037400050B134B1282C04DCE0B2FFF77BFF00203D
:10375000ECE70020FFF776FF042C01DA042404E0F4
:10376000B4F57A7F01DD4FF47A744FF47A7090FBF0
:10377000F4F0401EC0B20090134A12685178124A09
:10378000526810786B46012202F0A7FD10B14FF08D
:10379000FF30CBE79DF80000401C4FF47A7191FB9D
:1037A000F0F081B20848C1810146C9894810FFF78D
:1037B0000AFF0020BAE738B504460348807A28B9E2
:1037C0004FF0FF3038BD000038000020022C06D03A
:1037D000042C07D0082C08D0102C0CD108E00020B5
:1037E00000900BE00820009008E01020009005E019
:1037F0001820009002E04FF0FF30E3E700BFF948E7
:10380000407A9DF80010B0EBE10F01D10020D9E71C
:10381000F44A1268D179F34A526810786B46012253
:1038200002F05BFD10B14FF0FF30CBE79DF80000D8
:10383000C110EC4841720020C4E738B50446E9489D
:10384000807A10B94FF0FF3038BDFA2C09D0B4F5AA
:10385000FA7F09D0B4F57A7F09D0B4F5FA6F0CD1AC
:1038600008E0002000900BE00820009008E0102005
:10387000009005E01820009002E04FF0FF30E3E7F1
:1038800000BFD848007A9DF80010B0EBE10F01D1DD
:103890000020D9E7D34A12689179D24A5268107849
:1038A0006B46012202F019FD10B14FF0FF30CBE75B
:1038B0009DF80000C010CB4908720020C4E71CB579
:1038C00080208DF80000C74A1268917CC54A526872
:1038D00010786B46012202F000FD10B14FF0FF306E
:1038E0001CBD642004F0E5FD00208DF80000BD4AF9
:1038F0001268917CBB4A526810786B46012202F034
:10390000ECFC10B14FF0FF30EAE7B64A1268917D47
:10391000B44A526810786B46062202F029FC10B1B6
:103920004FF0FF30DCE79DF80500C007400F9DF821
:10393000031001F0010140EA41009DF8011001F07F
:10394000010140EA010494B1012C03D10121A548F1
:10395000C17431E0022C03D10021A248C1742BE0D4
:103960002146A1A004F09CFE4FF0FF30B8E79D4A2D
:103970001268D1789B4A526810786B46012202F097
:10398000F7FB10B14FF0FF30AAE79DF8000000F000
:103990000F042CB99E4804F083FE4FF0FF309FE7E0
:1039A000042C06D19BA004F07BFE01218D48C1743C
:1039B00002E000218B48C174FF218A488172FF20F8
:1039C00088490872FF2187484172C1724FF6FF7122
:1039D000C181FF21017481740121017380F82210DB
:1039E000002180F823104175017516300160416097
:1039F0008160163880F8241080F82510C1844FF4B7
:103A0000FA60FFF71AFF10B14FF0FF3068E70220AD
:103A1000FFF7D1FE10B14FF0FF3061E72A20FFF72A
:103A2000D2FD10B14FF0FF305AE73220FFF777FE9A
:103A300010B14FF0FF3053E70020FFF78FFD10B1BA
:103A40004FF0FF304CE70020FFF7F8FB10B14FF0CC
:103A5000FF3045E70020FFF78CFB002040E7704770
:103A60007CB504460D465F48807A00F0700010B9BE
:103A70004FF0FF307CBD5B4A1268117B594A526897
:103A800010786B46062202F073FB10B14FF0FF3046
:103A9000F0E79DF801009DF8001040EA012000B217
:103AA00020809DF803009DF8021040EA012000B23A
:103AB00060809DF805009DF8041040EA012000B2E6
:103AC000A08015B12846FFF7CAFF0020D2E77CB5D9
:103AD00004460D464348807A00F0080010B94FF0C4
:103AE000FF307CBD3F4A1268517B3E4A52681078D5
:103AF0006B46062202F03CFB10B14FF0FF30F0E7BE
:103B00009DF801009DF8001040EA012000B22080DD
:103B10009DF803009DF8021040EA012000B2608089
:103B20009DF805009DF8041040EA012000B2A08035
:103B300015B12846FFF793FF0020D2E72DE9FE4F8D
:103B400005460C462748807A18B94FF0FF30BDE88B
:103B5000FE8F244A1268917B224A5268107802AB89
:103B6000022202F005FB10B14FF0FF30EFE79DF8A5
:103B700009009DF8081040EA012006B214B1204661
:103B8000FFF76DFF17494968C88807F0E3FA154940
:103B900001904968B1F9080007F0C4FA834630463D
:103BA00007F0C0FA5946009007F01AFC82460199C6
:103BB00007F086F981461F4907F014F980464FF057
:103BC0008F4107F00FFB074607F070FA28600020CE
:103BD000BDE710B588B004461CB94FF0FF3008B0FF
:103BE00010BD29E038000020556E737570706F723B
:103BF00074656420736F6674776172652070726F8C
:103C000064756374207265762025642E0A000000B6
:103C100084DB000848616C662073656E73697469A3
:103C200076697479207061727420666F756E642E87
:103C30000A00000000000C42206830B9606820B91A
:103C4000A06810B9002008B010BDFA49496808788A
:103C500006AB0322114602F08BFA10B14FF0FF3091
:103C6000F1E79DF81800082101EB201000F00F008B
:103C7000ADF800009DF8190001EB201000F00F00D6
:103C8000ADF802009DF81A0001EB201000F00F00C3
:103C9000ADF8040020684100BDF90000403091FB00
:103CA000F0F000B2ADF8100060684100BDF902000C
:103CB000403091FBF0F000B2ADF81200A068410076
:103CC000BDF90400403091FBF0F000B2ADF81400F3
:103CD000D8494968087806AB0622114602F048FA2E
:103CE00010B14FF0FF30AEE79DF819009DF81810A5
:103CF00040EA012000B2ADF808009DF81B009DF8D5
:103D00001A1040EA012000B2ADF80A009DF81D002B
:103D10009DF81C1040EA012000B2ADF80C00BDF87F
:103D20001000BDF80810084400B2ADF81000BDF84E
:103D30001200BDF80A10084400B2ADF81200BDF838
:103D40001400BDF80C10084400B2ADF81400BDF822
:103D50001000000A8DF81800BDF81000C0B28DF8F0
:103D60001900BDF81200000A8DF81A00BDF8120003
:103D7000C0B28DF81B00BDF81400000A8DF81C00BD
:103D8000BDF81400C0B28DF81D00AA494968087832
:103D900006AB0622114602F0A0FA10B14FF0FF3038
:103DA00051E700204FE70146A248007A30B10128D0
:103DB00007D0022809D003280FD10AE0FA20088092
:103DC0000EE04FF4FA7008800AE04FF47A70088031
:103DD00006E04FF4FA60088002E00020088000BF8F
:103DE00000BF0020704701469248407A30B1012858
:103DF00007D0022808D003280CD108E00220087060
:103E00000BE00420087008E00820087005E010208E
:103E1000087002E04FF0FF30704700BF8548C07C5B
:103E200018B108784006000E08700020F4E701463B
:103E30008048C07A082817D2DFE800F01704070A84
:103E40000D101318BC20088013E06220088010E0D9
:103E50002A2008800DE0142008800AE00A2008804B
:103E600007E00520088004E000BF00BF00200880B4
:103E700000BF00BF0020704701466E4890F8240044
:103E800010B14FF0FF3070476A48C08908800020A9
:103E9000F9E7014600200880401E704701464FF0B8
:103EA000FF30704701466348007A30B1012807D0DF
:103EB000022808D003280CD108E05F4808600BE016
:103EC0005E48086008E05E48086005E05D480860FC
:103ED00002E04FF0FF30704700BF0020FBE70146D3
:103EE0005448407A30B1012808D002280AD003286B
:103EF00010D10BE04FF4804008800EE041F69C703A
:103F000008800AE04FF48050088006E04FF400601B
:103F1000088002E04FF0FF30704700BF4548C07C8A
:103F200010B10888401008800020F5E7014641489C
:103F3000007C08700020704701463E48807A10B12E
:103F40000120087001E0002008700020704738B59B
:103F500004463848807A10B94FF0FF3038BD354AF2
:103F60001268117C334A526810786B46022202F0C4
:103F7000FFF810B14FF0FF30F0E79DF801009DF819
:103F8000001040EA012000B220800020E6E72DE981
:103F9000FE4F0746884692461D46DDF830B00026A3
:103FA0000024244890F8240010B1601EBDE8FE8F64
:103FB000002028701F48807A10B94FF0FF30F5E7D5
:103FC0001C48007C10B94FF0FF30EFE71948007C27
:103FD00000F0400008B1B01CC6B21648007C00F0EA
:103FE000200008B1B01CC6B21248007C00F01000DE
:103FF00008B1B01CC6B20F48007C00F0080008B140
:10400000B01DC6B20B4A1268917A0A4A52681078FB
:104010006B46022202F0ACF810B14FF0FF30C5E75A
:104020009DF801009DF8001040EA0129B1450BDA26
:104030000020BBE73800002000000343000083425B
:104040003333034233338341FC4840684088B9EB43
:10405000600F17DDF94A1268517CF84A52681078EF
:104060006B46012202F084F810B14FF0FF309DE75B
:104070009DF8000000F0100020B1FFF783F96FF009
:10408000010093E75046FFF7EAFCEC4A1268D17A48
:10409000EA4A526810786B46324602F069F810B16D
:1040A0004FF0FF3082E799FBF6F0401E8BF80000DE
:1040B00000202870B4422AD0E048007C00F00800BC
:1040C00028B3601C1DF800001DF8041040EA012010
:1040D00000B2A8F80000E01C1DF80010A01C1DF89C
:1040E000000041EA002000B2A8F80200601D1DF89F
:1040F0000010201D1DF8000041EA002000B2A8F8C1
:104100000400287840F008002870A01D84B2B44252
:1041100013D0CA48007C00F0400070B1601C1DF84C
:1041200000001DF8041040EA012000B23880287811
:1041300040F040002870A01C84B2B44213D0BF48A5
:10414000007C00F0200070B1601C1DF800001DF81C
:10415000041040EA012000B27880287840F0200066
:104160002870A01C84B2B44213D0B448007C00F084
:10417000100070B1601C1DF800001DF8041040EA2A
:10418000012000B2B880287840F010002870A01CF0
:1041900084B200200AE7F8B504460F461646A74841
:1041A00090F8240010B94FF0FF30F8BDA348807A92
:1041B00010B94FF0FF30F8E7A04A1268917A9F4A91
:1041C000526810786B46022201F0D2FF10B14FF016
:1041D000FF30EAE79DF801009DF8001040EA012554
:1041E000A54203DA00203070401EDEE793484068A5
:1041F0004088B5EB600F17DD904A1268517C8F4AFA
:10420000526810786B46012201F0B2FF10B14FF0F6
:10421000FF30CAE79DF8000000F0100020B1FFF762
:10422000B1F86FF00100C0E7E2B2844B1B68D97AA5
:10423000824B5B6818783B4601F09AFF10B14FF053
:10424000FF30B2E795FBF4F0401E30700020ACE781
:1042500001467A4880F82210002070477CB5054658
:1042600076494968087801AB04220D2101F080FFEE
:1042700008B107207CBD9DF80700C0F301109DF830
:10428000041001F0E00140EAE1008DF800009DF823
:104290000700C0F381009DF8051001F0E00140EA3D
:1042A000E1008DF801009DF8070000F003009DF883
:1042B000061001F0E00140EAE1008DF80200002460
:1042C0001CE01DF8040018B9002045F8240013E094
:1042D0005B4845F8240006E055F82400594906F0EB
:1042E00081FF45F824001DF80400401EC0B20DF8FF
:1042F00004000028F0D100BF601CC4B2032CE0DB36
:104300000020B7E72DE9FE4F06460F460025684618
:10431000FFF7A4FF002442E056F8240057F82410C9
:10432000A0EB010ABAF1000F01DB514601E0CAF12E
:104330000001084606F0F6FE83464FF08F4106F076
:10434000BFFD80465DF82400002106F07BFE16D0FC
:104350005DF82410404606F0B3FD82464FF07E51D2
:1043600007F03EF8814629F0004A3748416A504636
:1043700007F004F812D20120A04005430EE03248B5
:10438000C169404606F0FAFE05D32F48016A40464F
:1043900006F0F4FF02D20120A0400543641C032C68
:1043A000BADB2846BDE8FE8F2DE9FC5F06460F46C6
:1043B000002522494968087801AB03220D2101F04C
:1043C000D7FE10B10720BDE8FC9F9DF8040000F067
:1043D0001F008DF804009DF8050000F01F008DF807
:1043E00005009DF8060000F01F008DF8060000246F
:1043F00062E056F8240057F82410A0EB010BBBF143
:10440000000F01DB594601E0CBF10001084606F040
:1044100089FE4FF08F41009006F052FD814601A8C1
:10442000005DC0B30849086806F094FE834659460B
:10443000064806F045FD80460FE0000038000020E9
:104440007B14AE3E1D5A843FA8CD000800B04C45F9
:10445000FE49404606F0C6FE804601A8005D401EAB
:10446000C0B201A908550028F2D14146484606F0DD
:1044700027FD83464FF07E5106F0B2FF82462AF0B8
:10448000004BF3488169584606F078FF13D20120AB
:10449000A04005430FE0FFE7ED480169484606F0FC
:1044A0006DFE05D3EA484169484606F067FF02D22F
:1044B0000120A0400543641C032C9ADB284682E7B8
:1044C0002DE9F04F87B005460C46914601208DF846
:1044D000100000208DF81100DE4A1268917CDD4A40
:1044E0005268107804AB022201F0F7FE20B14FF0C1
:1044F000FF3007B0BDE8F08FC82003F0DAFF0020DE
:104500008DF81000D34A1268D17BD24A52681078D5
:1045100004AB012201F0E1FE10B14FF0FF30E8E7FB
:10452000CC4A12685179CB4A5268107804AB012208
:1045300001F0D3FE10B14FF0FF30DAE7C54A126840
:10454000917CC44A5268107804AB012201F0C5FE88
:1045500010B14FF0FF30CCE7BE4A1268D17DBD4AA2
:104560005268107804AB012201F0B7FE10B14FF091
:10457000FF30BEE7B74A12681179B64A5268107820
:1045800004AB012201F0A9FE10B14FF0FF30B0E7FB
:104590000C208DF81000AF4A12681179AD4A5268AC
:1045A000107804AB012201F098FE10B14FF0FF30FB
:1045B0009FE70F2003F07DFFA648806A407A8DF8C0
:1045C0001000A44A12689178A24A5268107804AB8D
:1045D000012201F082FE10B14FF0FF3089E79D48C3
:1045E000806A007A8DF810009A4A12685178994AC8
:1045F0005268107804AB012201F06FFE10B14FF049
:10460000FF3076E7B9F1000F07D09248806A807AD0
:1046100040F0E0008DF8100004E08E48806A807A57
:104620008DF810008B4A126891798A4A5268107886
:1046300004AB012201F051FE10B14FF0FF3058E7FA
:10464000B9F1000F07D08348806AC07A40F0E000DB
:104650008DF8100003E07E48C07A8DF810007D4A86
:104660001268D1797B4A5268107804AB012201F0BC
:1046700034FE10B14FF0FF303BE7B9F1000F02D02C
:10468000C82003F016FF40208DF81000714A126810
:104690001179704A5268107804AB012201F01DFEB6
:1046A00010B14FF0FF3024E778208DF81000694AF0
:1046B00012685179674A5268107804AB012201F000
:1046C0000CFE10B14FF0FF3013E76149888903F009
:1046D000F0FE00208DF810005E4A126851795D4AA4
:1046E0005268107804AB012201F0F7FD10B14FF0D1
:1046F000FF30FEE6574A1268917A564A526810789F
:1047000004AB022201F034FD10B14FF0FF30F0E6AF
:104710009DF811009DF8101040EA012B0C209BFB26
:10472000F0F0C6B20020A86068602860A0606060F9
:104730002060824665E0474A1268D17A454A52684D
:10474000107804AB0C2201F013FD10B14FF0FF30D4
:10475000CFE69DF811009DF8101040EA012000B24C
:10476000ADF808009DF813009DF8121040EA0120F2
:1047700000B2ADF80A009DF815009DF8141040EA4B
:10478000012000B2ADF80C00BDF908102068084403
:104790002060BDF90A10606808446060BDF90C1023
:1047A000A0680844A0609DF817009DF8161040EA24
:1047B000012000B2ADF800009DF819009DF8181016
:1047C00040EA012000B2ADF802009DF81B009DF800
:1047D0001A1040EA012000B2ADF80400BDF9001043
:1047E000286808442860BDF90210686808446860B9
:1047F000BDF90410A8680844A8600AF1010000F09F
:10480000FF0AB24597DB1248D0F800C02868C117EC
:10481000090441EA1041070462460023384603F0C8
:104820001AFF32460023CDE9020103F014FF28608D
:104830000748D0F800C06868C117090441EA104170
:10484000070462460023384606E0000054E3853F33
:10485000A8CD00083800002003F0FDFE32460023FA
:10486000CDE9020103F0F7FE6860FE48D0F800C011
:10487000A868C117090441EA1041070462460023F1
:10488000384603F0E8FE32460023CDE9020103F08A
:10489000E2FEA860F348D0F804C02168C8170004FD
:1048A00040EA11480F04624600233846414603F0AF
:1048B000D2FE32460023CDE9020103F0CCFE206097
:1048C000E848D0F804C06068C117090441EA104103
:1048D000070462460023384603F0BDFE324600233B
:1048E000CDE9020103F0B7FE6060DE48D0F804C0F5
:1048F000A068C117090441EA104107046246002379
:10490000384603F0A8FE32460023CDE9020103F049
:10491000A2FEA060A068002804DDA068A0F5803099
:10492000A06003E0A06800F58030A0600020E0E512
:1049300038B50446CC4890F82400A04201D10020AC
:1049400038BD24B3C84890F8250010B94FF0FF30A7
:10495000F6E70020FEF74AFB0020FEF76FFCC24995
:10496000C88CFEF7DCFE00200090BF49496808783B
:104970006B460122232101F0B0FC0121BA4880F8E6
:1049800024100120FEF732FBFEF7FCFC13E00020B0
:10499000FEF72CFBB448007C0090B34949680878C6
:1049A0006B460122232101F098FC0021AE4880F8DB
:1049B0002410FEF7E7FC0020C2E72DE9F04F8DB090
:1049C00083460F4602200C90A74890F8240020B19F
:1049D0000020FFF7ADFF012600E0002603A8FFF747
:1049E000E2F905A8FFF7FFF901A8FFF720FA02A8EE
:1049F000FFF742FA9C4890F80AA004A8FFF796FA3D
:104A0000002407E0002239465846FFF759FD00B957
:104A100002E0641C022CF5DB00BF022C01D1002552
:104A200028E0002407E0012206A909A8FFF748FDB5
:104A300000B902E0641C022CF5DB00BF022C01D19E
:104A4000002517E006A93846FFF75CFC00F0FF08D8
:104A500009A95846FFF7A8FC00F0FF090025B9F1A5
:104A6000000F01D145F00105B8F1000F01D145F06B
:104A7000020500BFFF207C490872FF217A4841727D
:104A8000C1724FF6FF71C181FF2181720174012152
:104A90000173BDF80C00FEF7D0FE9DF81400FEF780
:104AA0008AFEBDF80400FEF78EFDBDF80800FEF793
:104AB00036FE5046FEF75DFB9DF81000FEF74EFDFA
:104AC00016B10120FFF734FF28460DB0BDE8F08F86
:104AD000F8B504460D46164616B94FF0FF30F8BD3E
:104AE0006148807A10B94FF0FF30F8E720128DF856
:104AF0000000E0B28DF801009DF8010028445A49F9
:104B000049684989884202DD4FF0FF30E7E7564A9D
:104B10001268117E544A526810786B46022201F0E6
:104B2000DCFB10B14FF0FF30D9E7EAB24E4B1B6807
:104B3000597D4D4B5B681878334601F0CEFB10B1C0
:104B40004FF0FF30CBE70020C9E7F8B504460D462B
:104B5000164616B94FF0FF30F8BD4348807A10B9B9
:104B60004FF0FF30F8E720128DF80000E0B28DF82A
:104B700001009DF8010028443B4949684989884261
:104B800002DD4FF0FF30E7E7374A1268117E364A00
:104B9000526810786B46022201F09FFB10B14FF073
:104BA000FF30D9E7EAB2304B1B68597D2E4B5B686A
:104BB0001878334601F0DCFA10B14FF0FF30CBE744
:104BC0000020C9E72DE9F04385B005460E46904622
:104BD0009946254890F8250020B14FF0FF3005B0E8
:104BE000BDE8F08316B94FF0FF30F8E7002423E06A
:104BF000281B102801DD102000E0281B87B2321985
:104C000039462046FFF764FF10B14FF0FF30E6E76A
:104C100001AA39462046FFF798FF10B14FF0FF3048
:104C2000DDE730193A4601A903F086FE10B16FF0B6
:104C30000100D4E7E01984B2AC42D9DB4FEA282066
:104C40008DF8000008F0FF008DF80100064A126898
:104C5000917E054A526810786B46022201F03DFBB6
:104C600038B103E0A8CD0008380000204FF0FF3035
:104C7000B5E70121FE4880F82510A0F82690002015
:104C8000ADE70146FA4890F824000870002070470C
:104C90004FF0FF30704702464FF0FF30704701463B
:104CA0004FF0FF307047F8B505460F461446002C0C
:104CB00070D0B5F5FF5F01DDFF2605E0202D01DA9C
:104CC000012601E0C5F3471607B90127282C02DDAC
:104CD0004FF0FF30F8BDE648407D28BBE44890F82F
:104CE000240038B10020FFF723FE0121E04880F8BE
:104CF000201003E00021DE4880F82010DC48163048
:104D0000FFF751F8DA481830FFF76DF8D8481A3035
:104D1000FFF78DF8D6481C30FFF7AEF8D448817AFB
:104D200081771F30FFF702F90020FEF75FF90020BE
:104D3000FEF788FC00208DF80000CD4A12689178BB
:104D4000CB4A526810786B46012201F0C6FA10B1C6
:104D50004FF0FF30BEE740208DF80000C44A1268D3
:104D6000D17BC34A526810786B46012201F0B5FA34
:104D700000B165E08DF800608DF80170BC4A1268E2
:104D8000117ABB4A526810786B46022201F0A5FAEC
:104D900008B155E047E0052003F08BFBB448407AAA
:104DA000072101EBC000C0B28DF80000B04A1268C4
:104DB000D179AF4A526810786B46012201F08DFA22
:104DC00000B13DE020208DF80000012C03D100202F
:104DD0008DF801000EE0052C03DC01208DF80100A8
:104DE00008E0142C03DC02208DF8010002E003200F
:104DF0008DF801009DF80100072101EB8010C0B281
:104E00008DF801009A4A1268917C994A526810788C
:104E10006B46022201F061FA00B111E001219448D1
:104E20004175002056E7924A1632002103E0505C9B
:104E300000B105E0491C0C29F9D34FF0FF3049E7D8
:104E4000FF208B490872FF2189484172C1724FF6D9
:104E5000FF71C181FF21817201740121017301463B
:104E6000887FFEF786F98249C88AFEF7E6FC80490A
:104E7000087EFEF7A0FC7E49488BFEF7A4FB7C4928
:104E8000888BFEF74CFC7A49C87FFEF767FB7848B1
:104E900090F8200010B10120FFF74AFD002174486E
:104EA0004175002016E770B588B002A905A8FFF784
:104EB00084FD0446032C3ED101A8FEF7F3FF0598BC
:104EC00006F030F90646019906F08CF9054606F021
:104ED000EDF80590069806F025F90646019906F0CA
:104EE00081F9054606F0E2F80690079806F01AF9EF
:104EF0000646019906F076F9054606F0D7F80790C0
:104F000005A800F052FA6846FEF7E9FFBDF8001068
:104F1000029848430290BDF800100398484303905C
:104F2000BDF8001004984843049002A800F0D0FA9D
:104F3000002008B070BD0120FBE7014691F9002078
:104F4000002A01DD00201EE091F90020002A01DA8C
:104F5000042018E091F90120002A01DD012012E06F
:104F600091F90120002A01DA05200CE091F90220D4
:104F7000002A01DD022006E091F90220002A01DA70
:104F8000062000E00720704710B504462046FFF7D2
:104F9000D4FF0346E01CFFF7D0FF43EAC00083B212
:104FA000A01DFFF7CAFF43EA801083B2184610BD68
:104FB00070B5002401F0CFF9FEF781FC00283DD147
:104FC0007820FEF7D6F8C4B20CB1012070BD78206D
:104FD000FEF7C4FAC4B20CB10220F7E76420FEF772
:104FE0009EFBC4B20CB10320F0E700F043F9C4B259
:104FF0000CB10420EAE71F48FFF7C6FF054600F0A2
:1050000043F9C4B20CB10520E0E740F2731000F0A0
:105010007CFDC4B20CB10620D8E7642000F0EEFAA3
:10502000C4B20CB10720D1E70CB10820CEE70120B3
:10503000FFF77EFCC4B21CB10920C7E70A20C5E710
:105040000020C3E72DE9F04F99B004460D461646FF
:105050004FF07E574FF000084FF000094FF0000A64
:1050600012A813A918AB0EAACDE9001014A903E0E9
:10507000380000206400002016A800F0A5FE18B13A
:10508000012019B0BDE8F08FBDF84C0000F480702D
:1050900000287CD00E9806F045F883464FF09D41DD
:1050A00005F00EFF07460F9806F03CF883464FF0D8
:1050B0009D4105F005FF8046109806F033F88346C1
:1050C0004FF09D4105F0FCFE8146119806F02AF84C
:1050D00083464FF09D4105F0F3FE824639464FF07E
:1050E000804006F07FF84946059006F07BF841467F
:1050F00007904FF0404006F075F85146059006F0D5
:1051000071F80690079905F06DFE834605F03EFEA6
:10511000CDE9080104F05AFD4FF06632544BCDE959
:105120000A0105F059FBCDE90C0105F093F8206068
:1051300049464FF0804006F055F84946029006F087
:1051400051F8414604904FF0404006F04BF841467C
:10515000029006F047F80390049906F041F983465F
:105160004FF07E5105F03EFE059005F00FFECDE9B3
:10517000080139464FF0804006F034F8414603906C
:1051800006F030F8494604904FF0804000E06AE0B5
:1051900006F028F85146039006F024F88346049957
:1051A00005F020FE059005F0F1FDCDE90601DDE9F1
:1051B000082304F053FF4FF066322D4BCDE90A016E
:1051C00005F00AFBCDE90C0105F044F828605146D2
:1051D000504606F007F849460490484606F002F8A3
:1051E00041460390404605F0FDFF394601903846A0
:1051F00005F0F8FF0090019905F0F4FD0290039985
:1052000006F0EEF88346049906F0EAF8059005F0FA
:10521000BDFDCDE908015146384605F0E3FF49469A
:105220000490404605F0DEFF0390049905F0DAFD96
:105230004FF08041059005F0D5FF834605F0A6FDAF
:10524000CDE90601DDE9082304F008FF4FF06632DE
:10525000074BCDE90A0105F0BFFACDE90C0104F0D6
:10526000F9FF306001E002200BE7002009E70000B1
:1052700066A64C4010B5C8234FF48062F74940F64B
:10528000F630FFF79FFC10BD10B586B00446F4A0C1
:1052900000680390F3A000680290F3A000680190FA
:1052A000F2A00068009004F0030003A9085C8DF8E8
:1052B000140003A8C4F3C101405C8DF8150003A8D5
:1052C000C4F38111405C8DF8160004F0030002A9BC
:1052D000085C8DF8100002A8C4F3C101405C8DF891
:1052E000110002A8C4F38111405C8DF8120005AAD8
:1052F000032140F22640FFF7EBFB18B14FF0FF30DF
:1053000006B010BD04AA032140F22A40FFF7E0FBDB
:1053100010B14FF0FF30F3E701980590009804902A
:1053200004F0040058B19DF8140040F001008DF81D
:1053300014009DF8100040F001008DF8100004F0FA
:10534000200058B19DF8150040F001008DF81500BF
:105350009DF8110040F001008DF8110004F48070F8
:1053600058B19DF8160040F001008DF816009DF828
:10537000120040F001008DF8120005AA03214FF43D
:105380008860FFF7A5FB10B14FF0FF30B8E704AA23
:10539000032140F23140FFF79BFB10B14FF0FF308B
:1053A000AEE7B34804810020AAE71FB50446B04821
:1053B000007A00F0030054F820000190AC48007A15
:1053C00000F0040010B1019840420190A848007A12
:1053D000C0F3C10054F820000290A548007A00F004
:1053E000200010B1029840420290A148007AC0F318
:1053F000811054F8200003909D48008900F48070CB
:1054000010B10398404203909A49019880FB010132
:10541000800F40EA810001909649029880FB0110BC
:10542000820042EA917002909249039880FB011039
:10543000820042EA917003900198000E8DF80000FE
:105440000198000C8DF801000198000A8DF8020007
:105450000198C0B28DF803006A4604214FF47470BD
:10546000FFF736FB18B14FF0FF3004B010BD0298C3
:10547000000E8DF800000298000C8DF801000298D3
:10548000000A8DF802000298C0B28DF803006A4647
:1054900004214FF47570FFF71BFB10B14FF0FF3084
:1054A000E3E70398000E8DF800000398000C8DF8D8
:1054B00001000398000A8DF802000398C0B28DF82D
:1054C00003006A4604214FF47670FFF701FBCCE736
:1054D00070B588B0064601A8FEF701FDBDF80400CE
:1054E0000021C90341EA5045C4036148007A00F035
:1054F000030056F8200005905D48007A00F0040093
:1055000010B10598404205905948007AC0F3C10097
:1055100056F8200006905648007A00F0200010B19E
:105520000698404206905248007AC0F3811056F81F
:10553000200007904E48008900F4807010B1079851
:10554000404207900598C117A0FB042301FB0431DA
:1055500000FB0510810041EA927005900698C11782
:10556000A0FB042301FB043100FB0510810041EA8C
:10557000927006900798C117A0FB042301FB043129
:1055800000FB0510810041EA927007900598000E1B
:105590008DF808000598000C8DF809000598000AA0
:1055A0008DF80A000598C0B28DF80B000698000E21
:1055B0008DF80C000698000C8DF80D000698000A76
:1055C0008DF80E000698C0B28DF80F000798000EF7
:1055D0008DF810000798000C8DF811000798000A4C
:1055E0008DF812000798C0B28DF8130002AA0C21A2
:1055F0004FF42570FFF76CFA08B070BD30B585B078
:1056000004461DA207CA02AB07C3C82C03DD4FF036
:10561000FF3005B030BDC82090FBF4F0401E85B2CD
:10562000280A8DF80000E8B28DF801006A460221D0
:1056300040F21620FFF74CFA10B14FF0FF30E8E7C8
:1056400002AA0C2140F6C120FFF742FA10B14FF038
:10565000FF30DEE7064884810020DAE7D0CD00087D
:105660004CCD6C000CC92C003656760026466600E0
:10567000C400002009E3CA02FEF2ABC4AAF1DFDFD6
:10568000BBAFDFDF0146FC488089088000207047FF
:105690002DE9FC4706460F4606F0070010B1B7F5A6
:1056A000C86F03DD4FF0FF30BDE8FC87384605F0DA
:1056B00051FD8146F14905F003FC80466846FEF73E
:1056C00092FB9DF80000022806D0042816D0082876
:1056D00026D0102848D135E04FF08D41404605F0E6
:1056E00081FD814605F0FEFC84B2E549404605F0A7
:1056F00079FD814605F0F6FC85B238E04FF08C412B
:10570000404605F06FFD814605F0ECFC84B2DD49B2
:10571000404605F067FD814605F0E4FC85B226E0D1
:105720004FF08B41404605F05DFD814605F0DAFC07
:1057300084B2D549404605F055FD814605F0D2FCBE
:1057400085B214E04FF08A41404605F04BFD81469A
:1057500005F0C8FC84B2CD49404605F043FD8146C2
:1057600005F0C0FC85B202E04FF0FF309CE700BFBF
:1057700020128DF80400E0B28DF8050028128DF893
:105780000600E8B28DF8070006F00100A0B101AAFA
:1057900002214FF4EA70FFF79BF910B14FF0FF3090
:1057A00082E70DF1060202214FF49270FFF790F9A3
:1057B00010B14FF0FF3077E706F00200A0B101AA68
:1057C00002214FF4EC70FFF783F910B14FF0FF3076
:1057D0006AE70DF1060202214FF49470FFF778F9A1
:1057E00010B14FF0FF305FE706F00400A0B101AA4E
:1057F00002214FF4EE70FFF76BF910B14FF0FF305C
:1058000052E70DF1060202214FF49670FFF760F99E
:1058100010B14FF0FF3047E7002045E738B50446A8
:105820000020009004F0010020B19DF8000040F03D
:105830003000009004F0020020B19DF8000040F01C
:105840000C00009004F0040020B19DF8000040F02E
:10585000030000906A4601214FF4A470FFF738F965
:1058600038BD38B50446012C01DA012402E0042CCD
:1058700000DD0424601EC0B200906A46012140F29F
:105880004F10FFF725F938BD38B50446052094FBC5
:10589000F0F085B228128DF80000E8B28DF8010012
:1058A0006A4602214FF4EF70FFF712F938BD38B5A0
:1058B0000446052094FBF0F085B228128DF8000014
:1058C000E8B28DF801006A4602214FF4ED70FFF74F
:1058D000FFF838BDF8B505460E464FF47A7095FBD3
:1058E000F0F000FB06F4200E8DF80000200C8DF87F
:1058F0000100200A8DF80200E0B28DF803006A462C
:1059000004214FF4AE70FFF7E3F8F8BD38B5044654
:10591000052094FBF0F084B220128DF80000E0B274
:105920008DF801006A4602214FF4AD70FFF7D0F800
:1059300038BD38B50446052094FBF0F084B220123F
:105940008DF80000E0B28DF801006A4602214FF4A4
:10595000AC70FFF7BDF838BD38B5044614B94FF048
:10596000FF3038BD6A4604214FF45870FFF7EDF858
:1059700010B14FF0FF30F4E79DF8000000069DF8ED
:10598000011040EA01409DF8021040EA01209DF814
:105990000310084320600020E3E738B50446200EDA
:1059A0008DF80000200C8DF80100200A8DF802000F
:1059B000E0B28DF803006A4604214FF45870FFF7F7
:1059C00087F838BD38B5044614B94FF0FF3038BDFC
:1059D0006A4604214FF47170FFF7B7F810B14FF029
:1059E000FF30F4E79DF8000000069DF8011040EA42
:1059F00001409DF8021040EA01209DF80310084381
:105A000000EB8000800020600020E0E738B504460D
:105A10001420B4FBF0F4200E8DF80000200C8DF85B
:105A20000100200A8DF80200E0B28DF803006A46FA
:105A300004214FF47170FFF74BF838BD38B50446B8
:105A400064B120208DF8000028208DF8010030205E
:105A50008DF8020038208DF8030004E0A322042111
:105A6000684602F095FF6A46042140F69E20FFF743
:105A70002FF8FDF787FC38BDC40000200000484324
:105A8000000040460000C045000040450000C04402
:105A900038B5044664B1C0208DF80000C2208DF8EE
:105AA0000100C4208DF80200C6208DF8030004E038
:105AB0008B220421684602F06BFF6A46042140F6FF
:105AC0009820FFF705F8FDF75DFC38BD3EB50446AC
:105AD0006CB1FDA1D1E900208968CDE900200291D7
